{
  "_format": "hh3-artifact-1",
  "contractName": "BuildingSaleManager",
  "sourceName": "contracts/BuildingSaleManager.sol",
  "abi": [
    {
      "inputs": [
        {
          "internalType": "address",
          "name": "initialOwner",
          "type": "address"
        },
        {
          "internalType": "address",
          "name": "_buildingRegistry",
          "type": "address"
        },
        {
          "internalType": "address",
          "name": "_tokenTreasury",
          "type": "address"
        }
      ],
      "stateMutability": "nonpayable",
      "type": "constructor"
    },
    {
      "inputs": [
        {
          "internalType": "address",
          "name": "owner",
          "type": "address"
        }
      ],
      "name": "OwnableInvalidOwner",
      "type": "error"
    },
    {
      "inputs": [
        {
          "internalType": "address",
          "name": "account",
          "type": "address"
        }
      ],
      "name": "OwnableUnauthorizedAccount",
      "type": "error"
    },
    {
      "inputs": [],
      "name": "ReentrancyGuardReentrantCall",
      "type": "error"
    },
    {
      "anonymous": false,
      "inputs": [
        {
          "indexed": true,
          "internalType": "address",
          "name": "previousOwner",
          "type": "address"
        },
        {
          "indexed": true,
          "internalType": "address",
          "name": "newOwner",
          "type": "address"
        }
      ],
      "name": "OwnershipTransferred",
      "type": "event"
    },
    {
      "anonymous": false,
      "inputs": [
        {
          "indexed": true,
          "internalType": "uint256",
          "name": "buildingId",
          "type": "uint256"
        },
        {
          "indexed": false,
          "internalType": "uint256",
          "name": "newPrice",
          "type": "uint256"
        }
      ],
      "name": "PriceUpdated",
      "type": "event"
    },
    {
      "anonymous": false,
      "inputs": [
        {
          "indexed": true,
          "internalType": "uint256",
          "name": "buildingId",
          "type": "uint256"
        }
      ],
      "name": "SaleClosed",
      "type": "event"
    },
    {
      "anonymous": false,
      "inputs": [
        {
          "indexed": true,
          "internalType": "uint256",
          "name": "buildingId",
          "type": "uint256"
        },
        {
          "indexed": false,
          "internalType": "address",
          "name": "token",
          "type": "address"
        },
        {
          "indexed": false,
          "internalType": "address",
          "name": "quoteToken",
          "type": "address"
        }
      ],
      "name": "SaleConfigured",
      "type": "event"
    },
    {
      "anonymous": false,
      "inputs": [
        {
          "indexed": true,
          "internalType": "uint256",
          "name": "buildingId",
          "type": "uint256"
        }
      ],
      "name": "SaleOpened",
      "type": "event"
    },
    {
      "anonymous": false,
      "inputs": [
        {
          "indexed": true,
          "internalType": "uint256",
          "name": "buildingId",
          "type": "uint256"
        }
      ],
      "name": "SalePublished",
      "type": "event"
    },
    {
      "anonymous": false,
      "inputs": [
        {
          "indexed": true,
          "internalType": "uint256",
          "name": "buildingId",
          "type": "uint256"
        },
        {
          "indexed": true,
          "internalType": "address",
          "name": "builder",
          "type": "address"
        },
        {
          "indexed": true,
          "internalType": "address",
          "name": "investor",
          "type": "address"
        },
        {
          "indexed": false,
          "internalType": "uint256",
          "name": "amountTokens",
          "type": "uint256"
        },
        {
          "indexed": false,
          "internalType": "uint256",
          "name": "amountQuote",
          "type": "uint256"
        }
      ],
      "name": "TokensBoughtBack",
      "type": "event"
    },
    {
      "anonymous": false,
      "inputs": [
        {
          "indexed": true,
          "internalType": "uint256",
          "name": "buildingId",
          "type": "uint256"
        },
        {
          "indexed": true,
          "internalType": "address",
          "name": "buyer",
          "type": "address"
        },
        {
          "indexed": false,
          "internalType": "uint256",
          "name": "amountTokens",
          "type": "uint256"
        },
        {
          "indexed": false,
          "internalType": "uint256",
          "name": "amountQuote",
          "type": "uint256"
        }
      ],
      "name": "TokensPurchased",
      "type": "event"
    },
    {
      "inputs": [],
      "name": "buildingRegistry",
      "outputs": [
        {
          "internalType": "contract IBuildingRegistry",
          "name": "",
          "type": "address"
        }
      ],
      "stateMutability": "view",
      "type": "function"
    },
    {
      "inputs": [
        {
          "internalType": "uint256",
          "name": "buildingId",
          "type": "uint256"
        },
        {
          "internalType": "uint256",
          "name": "quoteAmount",
          "type": "uint256"
        }
      ],
      "name": "buyTokens",
      "outputs": [],
      "stateMutability": "nonpayable",
      "type": "function"
    },
    {
      "inputs": [
        {
          "internalType": "uint256",
          "name": "buildingId",
          "type": "uint256"
        },
        {
          "internalType": "address",
          "name": "investor",
          "type": "address"
        },
        {
          "internalType": "uint256",
          "name": "tokenAmount",
          "type": "uint256"
        }
      ],
      "name": "buybackTokens",
      "outputs": [],
      "stateMutability": "nonpayable",
      "type": "function"
    },
    {
      "inputs": [
        {
          "internalType": "uint256",
          "name": "buildingId",
          "type": "uint256"
        }
      ],
      "name": "closeSale",
      "outputs": [],
      "stateMutability": "nonpayable",
      "type": "function"
    },
    {
      "inputs": [
        {
          "internalType": "uint256",
          "name": "buildingId",
          "type": "uint256"
        },
        {
          "internalType": "address",
          "name": "buildingToken",
          "type": "address"
        },
        {
          "internalType": "address",
          "name": "quoteToken",
          "type": "address"
        },
        {
          "internalType": "uint256",
          "name": "tokenPrice",
          "type": "uint256"
        },
        {
          "internalType": "uint256",
          "name": "maxTokensForSale",
          "type": "uint256"
        }
      ],
      "name": "configureSale",
      "outputs": [],
      "stateMutability": "nonpayable",
      "type": "function"
    },
    {
      "inputs": [],
      "name": "escrowManager",
      "outputs": [
        {
          "internalType": "contract IEscrowManager",
          "name": "",
          "type": "address"
        }
      ],
      "stateMutability": "view",
      "type": "function"
    },
    {
      "inputs": [
        {
          "internalType": "uint256",
          "name": "buildingId",
          "type": "uint256"
        }
      ],
      "name": "getSale",
      "outputs": [
        {
          "components": [
            {
              "internalType": "uint256",
              "name": "buildingId",
              "type": "uint256"
            },
            {
              "internalType": "address",
              "name": "buildingToken",
              "type": "address"
            },
            {
              "internalType": "address",
              "name": "quoteToken",
              "type": "address"
            },
            {
              "internalType": "uint256",
              "name": "tokenPrice",
              "type": "uint256"
            },
            {
              "internalType": "uint256",
              "name": "maxTokensForSale",
              "type": "uint256"
            },
            {
              "internalType": "uint256",
              "name": "tokensSold",
              "type": "uint256"
            },
            {
              "internalType": "bool",
              "name": "published",
              "type": "bool"
            },
            {
              "internalType": "bool",
              "name": "open",
              "type": "bool"
            }
          ],
          "internalType": "struct BuildingSaleManager.Sale",
          "name": "",
          "type": "tuple"
        }
      ],
      "stateMutability": "view",
      "type": "function"
    },
    {
      "inputs": [
        {
          "internalType": "uint256",
          "name": "buildingId",
          "type": "uint256"
        }
      ],
      "name": "openSale",
      "outputs": [],
      "stateMutability": "nonpayable",
      "type": "function"
    },
    {
      "inputs": [
        {
          "internalType": "uint256",
          "name": "buildingId",
          "type": "uint256"
        },
        {
          "internalType": "uint256",
          "name": "newPrice",
          "type": "uint256"
        }
      ],
      "name": "oracleUpdatePrice",
      "outputs": [],
      "stateMutability": "nonpayable",
      "type": "function"
    },
    {
      "inputs": [],
      "name": "owner",
      "outputs": [
        {
          "internalType": "address",
          "name": "",
          "type": "address"
        }
      ],
      "stateMutability": "view",
      "type": "function"
    },
    {
      "inputs": [
        {
          "internalType": "uint256",
          "name": "buildingId",
          "type": "uint256"
        }
      ],
      "name": "publishSale",
      "outputs": [],
      "stateMutability": "nonpayable",
      "type": "function"
    },
    {
      "inputs": [],
      "name": "renounceOwnership",
      "outputs": [],
      "stateMutability": "nonpayable",
      "type": "function"
    },
    {
      "inputs": [
        {
          "internalType": "uint256",
          "name": "",
          "type": "uint256"
        }
      ],
      "name": "saleOracles",
      "outputs": [
        {
          "internalType": "address",
          "name": "",
          "type": "address"
        }
      ],
      "stateMutability": "view",
      "type": "function"
    },
    {
      "inputs": [
        {
          "internalType": "uint256",
          "name": "",
          "type": "uint256"
        }
      ],
      "name": "sales",
      "outputs": [
        {
          "internalType": "uint256",
          "name": "buildingId",
          "type": "uint256"
        },
        {
          "internalType": "address",
          "name": "buildingToken",
          "type": "address"
        },
        {
          "internalType": "address",
          "name": "quoteToken",
          "type": "address"
        },
        {
          "internalType": "uint256",
          "name": "tokenPrice",
          "type": "uint256"
        },
        {
          "internalType": "uint256",
          "name": "maxTokensForSale",
          "type": "uint256"
        },
        {
          "internalType": "uint256",
          "name": "tokensSold",
          "type": "uint256"
        },
        {
          "internalType": "bool",
          "name": "published",
          "type": "bool"
        },
        {
          "internalType": "bool",
          "name": "open",
          "type": "bool"
        }
      ],
      "stateMutability": "view",
      "type": "function"
    },
    {
      "inputs": [
        {
          "internalType": "address",
          "name": "_escrowManager",
          "type": "address"
        }
      ],
      "name": "setEscrowManager",
      "outputs": [],
      "stateMutability": "nonpayable",
      "type": "function"
    },
    {
      "inputs": [
        {
          "internalType": "uint256",
          "name": "buildingId",
          "type": "uint256"
        },
        {
          "internalType": "address",
          "name": "oracle",
          "type": "address"
        }
      ],
      "name": "setOracle",
      "outputs": [],
      "stateMutability": "nonpayable",
      "type": "function"
    },
    {
      "inputs": [
        {
          "internalType": "address",
          "name": "_tokenTreasury",
          "type": "address"
        }
      ],
      "name": "setTokenTreasury",
      "outputs": [],
      "stateMutability": "nonpayable",
      "type": "function"
    },
    {
      "inputs": [],
      "name": "tokenTreasury",
      "outputs": [
        {
          "internalType": "address",
          "name": "",
          "type": "address"
        }
      ],
      "stateMutability": "view",
      "type": "function"
    },
    {
      "inputs": [
        {
          "internalType": "address",
          "name": "newOwner",
          "type": "address"
        }
      ],
      "name": "transferOwnership",
      "outputs": [],
      "stateMutability": "nonpayable",
      "type": "function"
    },
    {
      "inputs": [
        {
          "internalType": "address",
          "name": "quoteToken",
          "type": "address"
        },
        {
          "internalType": "uint256",
          "name": "amount",
          "type": "uint256"
        }
      ],
      "name": "withdrawQuoteTokens",
      "outputs": [],
      "stateMutability": "nonpayable",
      "type": "function"
    }
  ],
  "bytecode": "0x6080346101f257601f6120ce38819003918201601f19168301916001600160401b038311848410176101f6578084926060946040528339810103126101f2576100478161020a565b61005f60406100586020850161020a565b930161020a565b6001600160a01b039091169182156101df575f80546001600160a01b031981168517825560405194916001600160a01b03909116907f8be0079c531659141344cd1fd0a4f28419497f9722a3daafe3b4186f6b6457e09080a3600180556001600160a01b031691821561017757506001600160a01b031690811561010c5760018060a01b0319600254161760025560018060a01b03196006541617600655604051611eaf908161021f8239f35b60405162461bcd60e51b815260206004820152603960248201527f4275696c64696e6753616c654d616e616765723a20746f6b656e54726561737560448201527f72792063616e6e6f74206265207a65726f2061646472657373000000000000006064820152608490fd5b62461bcd60e51b815260206004820152603c60248201527f4275696c64696e6753616c654d616e616765723a206275696c64696e6752656760448201527f69737472792063616e6e6f74206265207a65726f2061646472657373000000006064820152608490fd5b631e4fbdf760e01b5f525f60045260245ffd5b5f80fd5b634e487b7160e01b5f52604160045260245ffd5b51906001600160a01b03821682036101f25756fe60806040526004361015610011575f80fd5b5f5f3560e01c806317c67569146119cb5780632f106f2a146119995780632fdf6d4914611971578063342eb7cc1461194957806334ec740a146117a3578063715018a614611749578063735f321c1461140757806374e40028146112985780637975ce2814610d8f5780637a49c4ed14610c5a5780638a2ec34a146107a45780638da5cb5b1461077d578063a4223d53146106ab578063b5f522f71461061c578063b7189dda14610565578063b7c8b78a14610520578063c12255c4146104f7578063d8f6d59614610397578063e5d599ef1461017e5763f2fde38b146100f6575f80fd5b3461017b57602036600319011261017b5761010f611ae2565b610117611e33565b6001600160a01b031680156101675781546001600160a01b03198116821783556001600160a01b03167f8be0079c531659141344cd1fd0a4f28419497f9722a3daafe3b4186f6b6457e08380a380f35b631e4fbdf760e01b82526004829052602482fd5b80fd5b503461017b57604036600319011261017b57610198611ae2565b602435906101a4611e33565b6040516370a0823160e01b8152306004820152916001600160a01b039190911690602083602481855afa92831561038c578493610354575b508061034e5750815b8215159081610343575b50156102e757825460405163a9059cbb60e01b81526001600160a01b03909116600482015260248101929092526020908290604490829086905af19081156102dc57829161029e575b50156102415780f35b60405162461bcd60e51b815260206004820152602f60248201527f4275696c64696e6753616c654d616e616765723a207769746864726177616c2060448201526e1d1c985b9cd9995c8819985a5b1959608a1b6064820152608490fd5b90506020813d6020116102d4575b816102b960209383611b9c565b810103126102d0576102ca90611c36565b5f610238565b5080fd5b3d91506102ac565b6040513d84823e3d90fd5b60405162461bcd60e51b815260206004820152602e60248201527f4275696c64696e6753616c654d616e616765723a20696e76616c69642077697460448201526d1a191c985dd85b08185b5bdd5b9d60921b6064820152608490fd5b90508211155f6101ef565b916101e5565b9092506020813d602011610384575b8161037060209383611b9c565b810103126103805751915f6101dc565b8380fd5b3d9150610363565b6040513d86823e3d90fd5b503461017b57602036600319011261017b576040610100916004358160e084516103c081611b6b565b82815282602082015282868201528260608201528260808201528260a08201528260c08201520152808252600460205282822054158015906104d7575b61040690611b0e565b81526004602052206040519061041b82611b6b565b80549182815260018060a01b03600183015416916020820192835260018060a01b036002820154166040830190815260038201546060840190815260048301549160808501928352600660058501549460a0870195865201549560ff60e060c0880197828a1615158952019760081c161515875260405197885260018060a01b03905116602088015260018060a01b0390511660408701525160608601525160808501525160a084015251151560c083015251151560e0820152f35b508082526004602052828220600101546001600160a01b031615156103fd565b503461017b578060031936011261017b576003546040516001600160a01b039091168152602090f35b503461017b57602036600319011261017b5761053a611ae2565b610542611e33565b60018060a01b03166bffffffffffffffffffffffff60a01b600354161760035580f35b503461017b57602036600319011261017b5761057f611ae2565b610587611e33565b6001600160a01b031680156105b1576bffffffffffffffffffffffff60a01b600654161760065580f35b60405162461bcd60e51b815260206004820152603960248201527f4275696c64696e6753616c654d616e616765723a20746f6b656e54726561737560448201527f72792063616e6e6f74206265207a65726f2061646472657373000000000000006064820152608490fd5b503461017b57602036600319011261017b57604061010091600435815260046020522060ff81549160018060a01b036001820154169060018060a01b0360028201541660038201546004830154916006600585015494015494604051978852602088015260408701526060860152608085015260a0840152818116151560c084015260081c16151560e0820152f35b503461017b57602036600319011261017b576004356106c8611e33565b8082526004602052604082206001810154600691906106f1906001600160a01b03161515611b0e565b01805461ff001916905560025482906001600160a01b0316803b156102d057818091604460405180948193633a1b3d3160e01b8352886004840152600360248401525af180156102dc57610768575b50807fcb67f20f64495b30f15524c55f90201dd6571d6b5c19dac183d2aeb25315b2dc91a280f35b8161077291611b9c565b6102d057815f610740565b503461017b578060031936011261017b57546040516001600160a01b039091168152602090f35b503461017b57606036600319011261017b576004356107c1611acc565b90604435906107ce611e59565b600254604051634efec58160e11b815260048101839052908590829060249082906001600160a01b03165afa8015610c4f5785918691610c1d575b5015610bc357336001600160a01b0390911603610b4d578115610af3576001600160a01b038316928315610a9157818552600460205260408520600181018054919291610860906001600160a01b03161515611b0e565b6003830154928386029386850403610a7d578315610a1257600201546040516323b872dd60e01b81523360048201526001600160a01b03848116602483015260448201869052909291602091849160649183918d91165af18015610a0757869289916109b7575b5092602092916108d961091a95611d66565b546040516323b872dd60e01b81526001600160a01b0392831660048201523360248201526044810193909352919384929091169082908a9082906064820190565b03925af180156109ac57869061096d575b6109359150611dcb565b60405192835260208301527f0c015b9cc2beb2b40bbd469674abf41272531df001d6401c4260cebd9bb136cf60403393a46001805580f35b506020813d6020116109a4575b8161098760209383611b9c565b810103126109a05761099b61093591611c36565b61092b565b8580fd5b3d915061097a565b6040513d88823e3d90fd5b919250506020813d6020116109ff575b816109d460209383611b9c565b810103126109fb5761091a926020926108d96109f08994611c36565b9295505091926108c7565b8780fd5b3d91506109c7565b6040513d8a823e3d90fd5b60405162461bcd60e51b815260206004820152603d60248201527f4275696c64696e6753616c654d616e616765723a2071756f7465416d6f756e7460448201527f2063616c63756c6174696f6e20726573756c74656420696e207a65726f0000006064820152608490fd5b634e487b7160e01b88526011600452602488fd5b60405162461bcd60e51b815260206004820152603460248201527f4275696c64696e6753616c654d616e616765723a20696e766573746f722063616044820152736e6e6f74206265207a65726f206164647265737360601b6064820152608490fd5b60405162461bcd60e51b815260206004820152602c60248201527f4275696c64696e6753616c654d616e616765723a20746f6b656e416d6f756e7460448201526b0206d757374206265203e20360a41b6064820152608490fd5b60405162461bcd60e51b815260206004820152604260248201527f4275696c64696e6753616c654d616e616765723a2063616c6c6572206973206e60448201527f6f742074686520646576656c6f70657220666f722074686973206275696c64696064820152616e6760f01b608482015260a490fd5b60405162461bcd60e51b815260206004820152602c60248201527f4275696c64696e6753616c654d616e616765723a206275696c64696e6720646f60448201526b195cc81b9bdd08195e1a5cdd60a21b6064820152608490fd5b9050610c3b91503d8087833e610c338183611b9c565b810190611c43565b50505098505050505050915050905f610809565b6040513d87823e3d90fd5b503461017b57602036600319011261017b57600435610c77611e33565b808252600460205260408220600181015460069190610ca0906001600160a01b03161515611b0e565b01805460ff8116610d365760ff1916600117905560025482906001600160a01b0316803b156102d057818091604460405180948193633a1b3d3160e01b8352886004840152600160248401525af180156102dc57610d21575b50807ff69bd4d6c0b132834bd5b000c3bbd13899094ca06561f6d088f102f6e16044df91a280f35b81610d2b91611b9c565b6102d057815f610cf9565b60405162461bcd60e51b815260206004820152602b60248201527f4275696c64696e6753616c654d616e616765723a2073616c6520616c7265616460448201526a1e481c1d589b1a5cda195960aa1b6064820152608490fd5b503461017b57610d9e36611af8565b90610da7611e59565b811561123e5780835260046020526040832060018101805490939190610dd7906001600160a01b03161515611b0e565b60ff600682015460081c16156111eb57600381015480156111d757820493841561116c576005820191610e0b868454611d45565b60048201541061110157600201546040516323b872dd60e01b815233600482015230602482015260448101859052906001600160a01b03166020826064818b855af18015610a0757879289916110c2575b50610e6690611d66565b6003546001600160a01b03169081610f51575b505090546006546040516323b872dd60e01b81526001600160a01b0391821660048201523360248201526044810193909352602091839160649183918b91165af180156109ac578690610f16575b610ed19150611dcb565b610edc848254611d45565b905560405192835260208301527fe8d7e55108ae7ddb60173461d2950c7a8e22a7ac7f442825564fe84c8c6f9a3860403393a36001805580f35b506020813d602011610f49575b81610f3060209383611b9c565b810103126109a057610f44610ed191611c36565b610ec7565b3d9150610f23565b9091506040519163095ea7b360e01b835260048301528760248301526020826044818b855af1918215610a0757859261107e575b5060035460405163095ea7b360e01b81526001600160a01b03909116600482015260248101929092526020908290818a81604481015b03925af1801561107357611038575b5060035486906001600160a01b0316803b156102d0578180916044604051809581936361638ed560e01b83528b60048401528a60248401525af191821561102b57879215610e79578192509061101f91611b9c565b6109a05784865f610e79565b50604051903d90823e3d90fd5b6020813d60201161106b575b8161105160209383611b9c565b810103126110675761106290611c36565b610fca565b8680fd5b3d9150611044565b6040513d89823e3d90fd5b91506020823d6020116110ba575b8161109960209383611b9c565b810103126109fb57846020916110b1610fbb94611c36565b50915091610f85565b3d915061108c565b9250506020823d6020116110f9575b816110de60209383611b9c565b810103126109fb57610e666110f38893611c36565b90610e5c565b3d91506110d1565b60405162461bcd60e51b815260206004820152603b60248201527f4275696c64696e6753616c654d616e616765723a20696e73756666696369656e60448201527f7420746f6b656e7320617661696c61626c6520666f722073616c6500000000006064820152608490fd5b60405162461bcd60e51b815260206004820152603c60248201527f4275696c64696e6753616c654d616e616765723a2071756f7465416d6f756e7460448201527f20746f6f20736d616c6c20746f2062757920616e7920746f6b656e73000000006064820152608490fd5b634e487b7160e01b86526012600452602486fd5b60405162461bcd60e51b815260206004820152602560248201527f4275696c64696e6753616c654d616e616765723a2073616c65206973206e6f746044820152641037b832b760d91b6064820152608490fd5b60405162461bcd60e51b815260206004820152602c60248201527f4275696c64696e6753616c654d616e616765723a2071756f7465416d6f756e7460448201526b0206d757374206265203e20360a41b6064820152608490fd5b503461017b576112a736611af8565b818352600560205260408320546001600160a01b0316330361139c5780156113455760207f945c1c4e99aa89f648fbfe3df471b916f719e16d960fcec0737d4d56bd6968389183855260048252604085205415801590611325575b61130b90611b0e565b83855260048252806003604087200155604051908152a280f35b508385526004825260408520600101546001600160a01b03161515611302565b60405162461bcd60e51b815260206004820152602960248201527f4275696c64696e6753616c654d616e616765723a206e65775072696365206d7560448201526807374206265203e20360bc1b6064820152608490fd5b60405162461bcd60e51b815260206004820152603f60248201527f4275696c64696e6753616c654d616e616765723a2063616c6c6572206973206e60448201527f6f7420746865206f7261636c6520666f722074686973206275696c64696e67006064820152608490fd5b503461017b5760a036600319011261017b57600435611424611acc565b6044356001600160a01b03811690819003610380576064359060843592611449611e33565b6001600160a01b03169081156116de57801561167a5782156116215783156115c257600254604051634efec58160e11b81526004810187905287918290829060249082906001600160a01b03165afa80156102dc577fb30bb61aebede44553f29526cc874cae2b8200d9b8cc9ce4d672aa607d8c643e96604096899360069361159e575b508751916114da83611b6b565b84835260208084018981528a8501898152606086019485526080860193845260a0860189815260c087018a815260e088018b8152998b5260048086529a8e90209751885592516001880180546001600160a01b039283166001600160a01b03199182161790915592516002890180549190921693169290921790915593516003860155915196840196909655905160058301555191018054925161ff0090151560081b1691151560ff1661ffff19909316929092171790558351928352820152a280f35b6115b1903d8088833e610c338183611b9c565b5050505050505050505050506114cd565b60405162461bcd60e51b815260206004820152603160248201527f4275696c64696e6753616c654d616e616765723a206d6178546f6b656e73466f60448201527007253616c65206d757374206265203e203607c1b6064820152608490fd5b60405162461bcd60e51b815260206004820152602b60248201527f4275696c64696e6753616c654d616e616765723a20746f6b656e50726963652060448201526a06d757374206265203e20360ac1b6064820152608490fd5b60405162461bcd60e51b815260206004820152603660248201527f4275696c64696e6753616c654d616e616765723a2071756f7465546f6b656e2060448201527563616e6e6f74206265207a65726f206164647265737360501b6064820152608490fd5b60405162461bcd60e51b815260206004820152603960248201527f4275696c64696e6753616c654d616e616765723a206275696c64696e67546f6b60448201527f656e2063616e6e6f74206265207a65726f2061646472657373000000000000006064820152608490fd5b503461017b578060031936011261017b57611762611e33565b80546001600160a01b03198116825581906001600160a01b03167f8be0079c531659141344cd1fd0a4f28419497f9722a3daafe3b4186f6b6457e08280a380f35b5034611892576020366003190112611892576004356117c0611e33565b805f526004602052600660405f206117e560018060a01b036001830154161515611b0e565b01805460ff8116156118ea5760ff8160081c166118965761ff0019166101001790556002546001600160a01b0316803b15611892575f8091604460405180948193633a1b3d3160e01b8352876004840152600260248401525af1801561188757611872575b507f1d43fb703e6eb9b1472bc95a5806edf8d7c700c4cb5c3ab570c7ac1eed12e72e8280a280f35b61187f9192505f90611b9c565b5f905f61184a565b6040513d5f823e3d90fd5b5f80fd5b60405162461bcd60e51b815260206004820152602660248201527f4275696c64696e6753616c654d616e616765723a2073616c6520616c726561646044820152653c9037b832b760d11b6064820152608490fd5b60405162461bcd60e51b815260206004820152603160248201527f4275696c64696e6753616c654d616e616765723a2073616c65206d757374206260448201527019481c1d589b1a5cda195908199a5c9cdd607a1b6064820152608490fd5b34611892575f366003190112611892576006546040516001600160a01b039091168152602090f35b34611892575f366003190112611892576002546040516001600160a01b039091168152602090f35b34611892576020366003190112611892576004355f526005602052602060018060a01b0360405f205416604051908152f35b34611892576040366003190112611892576004356119e7611acc565b906119f0611e33565b6001600160a01b03821615611a6c57805f52600460205260405f205415801590611a4a575b611a1e90611b0e565b5f90815260056020526040902080546001600160a01b0319166001600160a01b03909216919091179055005b505f818152600460205260409020600101546001600160a01b03161515611a15565b60405162461bcd60e51b815260206004820152603260248201527f4275696c64696e6753616c654d616e616765723a206f7261636c652063616e6e6044820152716f74206265207a65726f206164647265737360701b6064820152608490fd5b602435906001600160a01b038216820361189257565b600435906001600160a01b038216820361189257565b6040906003190112611892576004359060243590565b15611b1557565b60405162461bcd60e51b815260206004820152602860248201527f4275696c64696e6753616c654d616e616765723a2073616c65206e6f7420636f6044820152671b999a59dd5c995960c21b6064820152608490fd5b610100810190811067ffffffffffffffff821117611b8857604052565b634e487b7160e01b5f52604160045260245ffd5b90601f8019910116810190811067ffffffffffffffff821117611b8857604052565b81601f820112156118925780519067ffffffffffffffff8211611b885760405192611bf3601f8401601f191660200185611b9c565b8284526020838301011161189257815f9260208093018386015e8301015290565b51906001600160a01b038216820361189257565b519060ff8216820361189257565b5190811515820361189257565b906101a08282031261189257815192602083015167ffffffffffffffff81116118925782611c72918501611bbe565b92604081015167ffffffffffffffff81116118925783611c93918301611bbe565b92611ca060608301611c14565b92611cad60808401611c14565b92611cba60a08201611c14565b9260c082015160048110156118925792611cd660e08401611c28565b92611ce46101008201611c28565b92611cf26101208301611c36565b92611d006101408401611c36565b9261016081015167ffffffffffffffff81116118925783611d22918301611bbe565b9261018082015167ffffffffffffffff811161189257611d429201611bbe565b90565b91908201809211611d5257565b634e487b7160e01b5f52601160045260245ffd5b15611d6d57565b60405162461bcd60e51b815260206004820152603060248201527f4275696c64696e6753616c654d616e616765723a2071756f746520746f6b656e60448201526f081d1c985b9cd9995c8819985a5b195960821b6064820152608490fd5b15611dd257565b60405162461bcd60e51b815260206004820152603360248201527f4275696c64696e6753616c654d616e616765723a206275696c64696e6720746f6044820152721ad95b881d1c985b9cd9995c8819985a5b1959606a1b6064820152608490fd5b5f546001600160a01b03163303611e4657565b63118cdaa760e01b5f523360045260245ffd5b600260015414611e6a576002600155565b633ee5aeb560e01b5f5260045ffdfea26469706673582212202db255207068249a33b7ac479ed9adecec1a2205cf22337dc82039f2dfd6d24264736f6c634300081c0033",
  "linkReferences": {},
  "deployedLinkReferences": {},
  "immutableReferences": {},
  "inputSourceName": "project/contracts/BuildingSaleManager.sol",
  "buildInfoId": "solc-0_8_28-a57f6a673c268b877f101595f3beafaee83d789f"
}