{
  "_format": "hh3-artifact-1",
  "contractName": "BuildingRegistry",
  "sourceName": "contracts/BuildingRegistry.sol",
  "abi": [
    {
      "inputs": [
        {
          "internalType": "address",
          "name": "initialOwner",
          "type": "address"
        }
      ],
      "stateMutability": "nonpayable",
      "type": "constructor"
    },
    {
      "inputs": [
        {
          "internalType": "address",
          "name": "owner",
          "type": "address"
        }
      ],
      "name": "OwnableInvalidOwner",
      "type": "error"
    },
    {
      "inputs": [
        {
          "internalType": "address",
          "name": "account",
          "type": "address"
        }
      ],
      "name": "OwnableUnauthorizedAccount",
      "type": "error"
    },
    {
      "anonymous": false,
      "inputs": [
        {
          "indexed": true,
          "internalType": "address",
          "name": "admin",
          "type": "address"
        },
        {
          "indexed": false,
          "internalType": "bool",
          "name": "isAdmin",
          "type": "bool"
        }
      ],
      "name": "AdminUpdated",
      "type": "event"
    },
    {
      "anonymous": false,
      "inputs": [
        {
          "indexed": true,
          "internalType": "uint256",
          "name": "buildingId",
          "type": "uint256"
        },
        {
          "indexed": true,
          "internalType": "address",
          "name": "developer",
          "type": "address"
        }
      ],
      "name": "BuildingCreated",
      "type": "event"
    },
    {
      "anonymous": false,
      "inputs": [
        {
          "indexed": true,
          "internalType": "uint256",
          "name": "buildingId",
          "type": "uint256"
        },
        {
          "indexed": false,
          "internalType": "enum BuildingRegistry.Status",
          "name": "newStatus",
          "type": "uint8"
        }
      ],
      "name": "BuildingStatusUpdated",
      "type": "event"
    },
    {
      "anonymous": false,
      "inputs": [
        {
          "indexed": true,
          "internalType": "uint256",
          "name": "buildingId",
          "type": "uint256"
        },
        {
          "indexed": false,
          "internalType": "uint8",
          "name": "milestone",
          "type": "uint8"
        }
      ],
      "name": "MilestoneConfirmed",
      "type": "event"
    },
    {
      "anonymous": false,
      "inputs": [
        {
          "indexed": true,
          "internalType": "address",
          "name": "previousOwner",
          "type": "address"
        },
        {
          "indexed": true,
          "internalType": "address",
          "name": "newOwner",
          "type": "address"
        }
      ],
      "name": "OwnershipTransferred",
      "type": "event"
    },
    {
      "inputs": [
        {
          "internalType": "address",
          "name": "",
          "type": "address"
        }
      ],
      "name": "admins",
      "outputs": [
        {
          "internalType": "bool",
          "name": "",
          "type": "bool"
        }
      ],
      "stateMutability": "view",
      "type": "function"
    },
    {
      "inputs": [
        {
          "internalType": "uint256",
          "name": "",
          "type": "uint256"
        }
      ],
      "name": "buildings",
      "outputs": [
        {
          "internalType": "uint256",
          "name": "id",
          "type": "uint256"
        },
        {
          "internalType": "string",
          "name": "name",
          "type": "string"
        },
        {
          "internalType": "string",
          "name": "metadataURI",
          "type": "string"
        },
        {
          "internalType": "address",
          "name": "developer",
          "type": "address"
        },
        {
          "internalType": "address",
          "name": "oracle",
          "type": "address"
        },
        {
          "internalType": "address",
          "name": "tokenContract",
          "type": "address"
        },
        {
          "internalType": "enum BuildingRegistry.Status",
          "name": "status",
          "type": "uint8"
        },
        {
          "internalType": "uint8",
          "name": "totalMilestones",
          "type": "uint8"
        },
        {
          "internalType": "uint8",
          "name": "currentMilestone",
          "type": "uint8"
        },
        {
          "internalType": "bool",
          "name": "exists",
          "type": "bool"
        }
      ],
      "stateMutability": "view",
      "type": "function"
    },
    {
      "inputs": [
        {
          "internalType": "uint256",
          "name": "buildingId",
          "type": "uint256"
        }
      ],
      "name": "confirmMilestone",
      "outputs": [],
      "stateMutability": "nonpayable",
      "type": "function"
    },
    {
      "inputs": [
        {
          "internalType": "string",
          "name": "name",
          "type": "string"
        },
        {
          "internalType": "string",
          "name": "metadataURI",
          "type": "string"
        },
        {
          "internalType": "address",
          "name": "developer",
          "type": "address"
        },
        {
          "internalType": "address",
          "name": "oracle",
          "type": "address"
        },
        {
          "internalType": "uint8",
          "name": "totalMilestones",
          "type": "uint8"
        }
      ],
      "name": "createBuilding",
      "outputs": [
        {
          "internalType": "uint256",
          "name": "buildingId",
          "type": "uint256"
        }
      ],
      "stateMutability": "nonpayable",
      "type": "function"
    },
    {
      "inputs": [
        {
          "internalType": "uint256",
          "name": "buildingId",
          "type": "uint256"
        }
      ],
      "name": "getBuilding",
      "outputs": [
        {
          "internalType": "uint256",
          "name": "id",
          "type": "uint256"
        },
        {
          "internalType": "string",
          "name": "name",
          "type": "string"
        },
        {
          "internalType": "string",
          "name": "metadataURI",
          "type": "string"
        },
        {
          "internalType": "address",
          "name": "developer",
          "type": "address"
        },
        {
          "internalType": "address",
          "name": "oracle",
          "type": "address"
        },
        {
          "internalType": "address",
          "name": "tokenContract",
          "type": "address"
        },
        {
          "internalType": "enum BuildingRegistry.Status",
          "name": "status",
          "type": "uint8"
        },
        {
          "internalType": "uint8",
          "name": "totalMilestones",
          "type": "uint8"
        },
        {
          "internalType": "uint8",
          "name": "currentMilestone",
          "type": "uint8"
        },
        {
          "internalType": "bool",
          "name": "exists",
          "type": "bool"
        }
      ],
      "stateMutability": "view",
      "type": "function"
    },
    {
      "inputs": [],
      "name": "getNextBuildingId",
      "outputs": [
        {
          "internalType": "uint256",
          "name": "",
          "type": "uint256"
        }
      ],
      "stateMutability": "view",
      "type": "function"
    },
    {
      "inputs": [],
      "name": "owner",
      "outputs": [
        {
          "internalType": "address",
          "name": "",
          "type": "address"
        }
      ],
      "stateMutability": "view",
      "type": "function"
    },
    {
      "inputs": [],
      "name": "renounceOwnership",
      "outputs": [],
      "stateMutability": "nonpayable",
      "type": "function"
    },
    {
      "inputs": [
        {
          "internalType": "address",
          "name": "admin",
          "type": "address"
        },
        {
          "internalType": "bool",
          "name": "isAdmin",
          "type": "bool"
        }
      ],
      "name": "setAdmin",
      "outputs": [],
      "stateMutability": "nonpayable",
      "type": "function"
    },
    {
      "inputs": [
        {
          "internalType": "uint256",
          "name": "buildingId",
          "type": "uint256"
        },
        {
          "internalType": "address",
          "name": "tokenContract",
          "type": "address"
        }
      ],
      "name": "setTokenContract",
      "outputs": [],
      "stateMutability": "nonpayable",
      "type": "function"
    },
    {
      "inputs": [
        {
          "internalType": "address",
          "name": "newOwner",
          "type": "address"
        }
      ],
      "name": "transferOwnership",
      "outputs": [],
      "stateMutability": "nonpayable",
      "type": "function"
    },
    {
      "inputs": [
        {
          "internalType": "uint256",
          "name": "buildingId",
          "type": "uint256"
        },
        {
          "internalType": "enum BuildingRegistry.Status",
          "name": "newStatus",
          "type": "uint8"
        }
      ],
      "name": "updateStatus",
      "outputs": [],
      "stateMutability": "nonpayable",
      "type": "function"
    }
  ],
  "bytecode": "0x60806040526001600355348015610014575f5ffd5b506040516125e93803806125e9833981810160405281019061003691906101dc565b805f73ffffffffffffffffffffffffffffffffffffffff168173ffffffffffffffffffffffffffffffffffffffff16036100a7575f6040517f1e4fbdf700000000000000000000000000000000000000000000000000000000815260040161009e9190610216565b60405180910390fd5b6100b6816100bd60201b60201c565b505061022f565b5f5f5f9054906101000a900473ffffffffffffffffffffffffffffffffffffffff169050815f5f6101000a81548173ffffffffffffffffffffffffffffffffffffffff021916908373ffffffffffffffffffffffffffffffffffffffff1602179055508173ffffffffffffffffffffffffffffffffffffffff168173ffffffffffffffffffffffffffffffffffffffff167f8be0079c531659141344cd1fd0a4f28419497f9722a3daafe3b4186f6b6457e060405160405180910390a35050565b5f5ffd5b5f73ffffffffffffffffffffffffffffffffffffffff82169050919050565b5f6101ab82610182565b9050919050565b6101bb816101a1565b81146101c5575f5ffd5b50565b5f815190506101d6816101b2565b92915050565b5f602082840312156101f1576101f061017e565b5b5f6101fe848285016101c8565b91505092915050565b610210816101a1565b82525050565b5f6020820190506102295f830184610207565b92915050565b6123ad8061023c5f395ff3fe608060405234801561000f575f5ffd5b50600436106100b2575f3560e01c80635fd6a0eb1161006f5780635fd6a0eb14610191578063715018a6146101c15780638da5cb5b146101cb5780639dfd8b02146101e9578063bd2d904514610222578063f2fde38b1461023e576100b2565b806329315ea7146100b65780633a1b3d31146100d2578063429b62e5146100ee5780634b0bddd21461011e5780634c96a0621461013a57806351b7cbbd14610173575b5f5ffd5b6100d060048036038101906100cb91906114fa565b61025a565b005b6100ec60048036038101906100e79190611548565b610463565b005b610108600480360381019061010391906115e0565b61061c565b6040516101159190611625565b60405180910390f35b61013860048036038101906101339190611668565b610639565b005b610154600480360381019061014f91906114fa565b610755565b60405161016a9a999897969594939291906117c2565b60405180910390f35b61017b610942565b604051610188919061186a565b60405180910390f35b6101ab60048036038101906101a691906119d9565b61094b565b6040516101b8919061186a565b60405180910390f35b6101c9610d27565b005b6101d3610d3a565b6040516101e09190611a88565b60405180910390f35b61020360048036038101906101fe91906114fa565b610d61565b6040516102199a999897969594939291906117c2565b60405180910390f35b61023c60048036038101906102379190611aa1565b6110de565b005b610258600480360381019061025391906115e0565b6112e3565b005b803373ffffffffffffffffffffffffffffffffffffffff1660015f8381526020019081526020015f206004015f9054906101000a900473ffffffffffffffffffffffffffffffffffffffff1673ffffffffffffffffffffffffffffffffffffffff16146102fc576040517f08c379a00000000000000000000000000000000000000000000000000000000081526004016102f390611b4f565b60405180910390fd5b60015f8381526020019081526020015f2060050160179054906101000a900460ff1661035d576040517f08c379a000000000000000000000000000000000000000000000000000000000815260040161035490611bdd565b60405180910390fd5b5f60015f8481526020019081526020015f2090508060050160159054906101000a900460ff1660ff168160050160169054906101000a900460ff1660ff16106103db576040517f08c379a00000000000000000000000000000000000000000000000000000000081526004016103d290611c6b565b60405180910390fd5b80600501601681819054906101000a900460ff16809291906103fc90611cb6565b91906101000a81548160ff021916908360ff16021790555050827f68a54d0c4a7cba238f757020a011d103ef5a6e1248b6e95589235a25337ffad78260050160169054906101000a900460ff166040516104569190611cde565b60405180910390a2505050565b813373ffffffffffffffffffffffffffffffffffffffff16610483610d3a565b73ffffffffffffffffffffffffffffffffffffffff16148061050357503373ffffffffffffffffffffffffffffffffffffffff1660015f8381526020019081526020015f206003015f9054906101000a900473ffffffffffffffffffffffffffffffffffffffff1673ffffffffffffffffffffffffffffffffffffffff16145b610542576040517f08c379a000000000000000000000000000000000000000000000000000000000815260040161053990611d67565b60405180910390fd5b60015f8481526020019081526020015f2060050160179054906101000a900460ff166105a3576040517f08c379a000000000000000000000000000000000000000000000000000000000815260040161059a90611bdd565b60405180910390fd5b8160015f8581526020019081526020015f2060050160146101000a81548160ff021916908360038111156105da576105d9611734565b5b0217905550827fd8669986e814db307a46fec4a84b1ba42b394db6024c93abd1a8d92654d4a9d68360405161060f9190611d85565b60405180910390a2505050565b6002602052805f5260405f205f915054906101000a900460ff1681565b610641611367565b5f73ffffffffffffffffffffffffffffffffffffffff168273ffffffffffffffffffffffffffffffffffffffff16036106af576040517f08c379a00000000000000000000000000000000000000000000000000000000081526004016106a690611e0e565b60405180910390fd5b8060025f8473ffffffffffffffffffffffffffffffffffffffff1673ffffffffffffffffffffffffffffffffffffffff1681526020019081526020015f205f6101000a81548160ff0219169083151502179055508173ffffffffffffffffffffffffffffffffffffffff167f235bc17e7930760029e9f4d860a2a8089976de5b381cf8380fc11c1d88a11133826040516107499190611625565b60405180910390a25050565b6001602052805f5260405f205f91509050805f01549080600101805461077a90611e59565b80601f01602080910402602001604051908101604052809291908181526020018280546107a690611e59565b80156107f15780601f106107c8576101008083540402835291602001916107f1565b820191905f5260205f20905b8154815290600101906020018083116107d457829003601f168201915b50505050509080600201805461080690611e59565b80601f016020809104026020016040519081016040528092919081815260200182805461083290611e59565b801561087d5780601f106108545761010080835404028352916020019161087d565b820191905f5260205f20905b81548152906001019060200180831161086057829003601f168201915b505050505090806003015f9054906101000a900473ffffffffffffffffffffffffffffffffffffffff1690806004015f9054906101000a900473ffffffffffffffffffffffffffffffffffffffff1690806005015f9054906101000a900473ffffffffffffffffffffffffffffffffffffffff16908060050160149054906101000a900460ff16908060050160159054906101000a900460ff16908060050160169054906101000a900460ff16908060050160179054906101000a900460ff1690508a565b5f600354905090565b5f5f8260ff1611610991576040517f08c379a000000000000000000000000000000000000000000000000000000000815260040161098890611ef9565b60405180910390fd5b5f73ffffffffffffffffffffffffffffffffffffffff168473ffffffffffffffffffffffffffffffffffffffff16036109ff576040517f08c379a00000000000000000000000000000000000000000000000000000000081526004016109f690611f87565b60405180910390fd5b5f73ffffffffffffffffffffffffffffffffffffffff168373ffffffffffffffffffffffffffffffffffffffff1603610a6d576040517f08c379a0000000000000000000000000000000000000000000000000000000008152600401610a6490612015565b60405180910390fd5b600354905060035f815480929190610a8490612033565b91905055506040518061014001604052808281526020018781526020018681526020018573ffffffffffffffffffffffffffffffffffffffff1681526020018473ffffffffffffffffffffffffffffffffffffffff1681526020015f73ffffffffffffffffffffffffffffffffffffffff1681526020015f6003811115610b0e57610b0d611734565b5b81526020018360ff1681526020015f60ff1681526020016001151581525060015f8381526020019081526020015f205f820151815f01556020820151816001019081610b5a919061221a565b506040820151816002019081610b70919061221a565b506060820151816003015f6101000a81548173ffffffffffffffffffffffffffffffffffffffff021916908373ffffffffffffffffffffffffffffffffffffffff1602179055506080820151816004015f6101000a81548173ffffffffffffffffffffffffffffffffffffffff021916908373ffffffffffffffffffffffffffffffffffffffff16021790555060a0820151816005015f6101000a81548173ffffffffffffffffffffffffffffffffffffffff021916908373ffffffffffffffffffffffffffffffffffffffff16021790555060c08201518160050160146101000a81548160ff02191690836003811115610c6e57610c6d611734565b5b021790555060e08201518160050160156101000a81548160ff021916908360ff1602179055506101008201518160050160166101000a81548160ff021916908360ff1602179055506101208201518160050160176101000a81548160ff0219169083151502179055509050508373ffffffffffffffffffffffffffffffffffffffff16817fb303b1734ad670b1e6b9d58f7bc0815a7914a01f3914393a3b86e20fde23eb3660405160405180910390a395945050505050565b610d2f611367565b610d385f6113ee565b565b5f5f5f9054906101000a900473ffffffffffffffffffffffffffffffffffffffff16905090565b5f6060805f5f5f5f5f5f5f5f60015f8d81526020019081526020015f20604051806101400160405290815f8201548152602001600182018054610da390611e59565b80601f0160208091040260200160405190810160405280929190818152602001828054610dcf90611e59565b8015610e1a5780601f10610df157610100808354040283529160200191610e1a565b820191905f5260205f20905b815481529060010190602001808311610dfd57829003601f168201915b50505050508152602001600282018054610e3390611e59565b80601f0160208091040260200160405190810160405280929190818152602001828054610e5f90611e59565b8015610eaa5780601f10610e8157610100808354040283529160200191610eaa565b820191905f5260205f20905b815481529060010190602001808311610e8d57829003601f168201915b50505050508152602001600382015f9054906101000a900473ffffffffffffffffffffffffffffffffffffffff1673ffffffffffffffffffffffffffffffffffffffff1673ffffffffffffffffffffffffffffffffffffffff168152602001600482015f9054906101000a900473ffffffffffffffffffffffffffffffffffffffff1673ffffffffffffffffffffffffffffffffffffffff1673ffffffffffffffffffffffffffffffffffffffff168152602001600582015f9054906101000a900473ffffffffffffffffffffffffffffffffffffffff1673ffffffffffffffffffffffffffffffffffffffff1673ffffffffffffffffffffffffffffffffffffffff1681526020016005820160149054906101000a900460ff166003811115610fd757610fd6611734565b5b6003811115610fe957610fe8611734565b5b81526020016005820160159054906101000a900460ff1660ff1660ff1681526020016005820160169054906101000a900460ff1660ff1660ff1681526020016005820160179054906101000a900460ff1615151515815250509050806101200151611089576040517f08c379a000000000000000000000000000000000000000000000000000000000815260040161108090611bdd565b60405180910390fd5b805f015181602001518260400151836060015184608001518560a001518660c001518760e001518861010001518961012001519a509a509a509a509a509a509a509a509a509a50509193959799509193959799565b813373ffffffffffffffffffffffffffffffffffffffff166110fe610d3a565b73ffffffffffffffffffffffffffffffffffffffff16148061117e57503373ffffffffffffffffffffffffffffffffffffffff1660015f8381526020019081526020015f206003015f9054906101000a900473ffffffffffffffffffffffffffffffffffffffff1673ffffffffffffffffffffffffffffffffffffffff16145b6111bd576040517f08c379a00000000000000000000000000000000000000000000000000000000081526004016111b490611d67565b60405180910390fd5b60015f8481526020019081526020015f2060050160179054906101000a900460ff1661121e576040517f08c379a000000000000000000000000000000000000000000000000000000000815260040161121590611bdd565b60405180910390fd5b5f73ffffffffffffffffffffffffffffffffffffffff168273ffffffffffffffffffffffffffffffffffffffff160361128c576040517f08c379a000000000000000000000000000000000000000000000000000000000815260040161128390612359565b60405180910390fd5b8160015f8581526020019081526020015f206005015f6101000a81548173ffffffffffffffffffffffffffffffffffffffff021916908373ffffffffffffffffffffffffffffffffffffffff160217905550505050565b6112eb611367565b5f73ffffffffffffffffffffffffffffffffffffffff168173ffffffffffffffffffffffffffffffffffffffff160361135b575f6040517f1e4fbdf70000000000000000000000000000000000000000000000000000000081526004016113529190611a88565b60405180910390fd5b611364816113ee565b50565b61136f6114af565b73ffffffffffffffffffffffffffffffffffffffff1661138d610d3a565b73ffffffffffffffffffffffffffffffffffffffff16146113ec576113b06114af565b6040517f118cdaa70000000000000000000000000000000000000000000000000000000081526004016113e39190611a88565b60405180910390fd5b565b5f5f5f9054906101000a900473ffffffffffffffffffffffffffffffffffffffff169050815f5f6101000a81548173ffffffffffffffffffffffffffffffffffffffff021916908373ffffffffffffffffffffffffffffffffffffffff1602179055508173ffffffffffffffffffffffffffffffffffffffff168173ffffffffffffffffffffffffffffffffffffffff167f8be0079c531659141344cd1fd0a4f28419497f9722a3daafe3b4186f6b6457e060405160405180910390a35050565b5f33905090565b5f604051905090565b5f5ffd5b5f5ffd5b5f819050919050565b6114d9816114c7565b81146114e3575f5ffd5b50565b5f813590506114f4816114d0565b92915050565b5f6020828403121561150f5761150e6114bf565b5b5f61151c848285016114e6565b91505092915050565b60048110611531575f5ffd5b50565b5f8135905061154281611525565b92915050565b5f5f6040838503121561155e5761155d6114bf565b5b5f61156b858286016114e6565b925050602061157c85828601611534565b9150509250929050565b5f73ffffffffffffffffffffffffffffffffffffffff82169050919050565b5f6115af82611586565b9050919050565b6115bf816115a5565b81146115c9575f5ffd5b50565b5f813590506115da816115b6565b92915050565b5f602082840312156115f5576115f46114bf565b5b5f611602848285016115cc565b91505092915050565b5f8115159050919050565b61161f8161160b565b82525050565b5f6020820190506116385f830184611616565b92915050565b6116478161160b565b8114611651575f5ffd5b50565b5f813590506116628161163e565b92915050565b5f5f6040838503121561167e5761167d6114bf565b5b5f61168b858286016115cc565b925050602061169c85828601611654565b9150509250929050565b6116af816114c7565b82525050565b5f81519050919050565b5f82825260208201905092915050565b8281835e5f83830152505050565b5f601f19601f8301169050919050565b5f6116f7826116b5565b61170181856116bf565b93506117118185602086016116cf565b61171a816116dd565b840191505092915050565b61172e816115a5565b82525050565b7f4e487b71000000000000000000000000000000000000000000000000000000005f52602160045260245ffd5b6004811061177257611771611734565b5b50565b5f81905061178282611761565b919050565b5f61179182611775565b9050919050565b6117a181611787565b82525050565b5f60ff82169050919050565b6117bc816117a7565b82525050565b5f610140820190506117d65f83018d6116a6565b81810360208301526117e8818c6116ed565b905081810360408301526117fc818b6116ed565b905061180b606083018a611725565b6118186080830189611725565b61182560a0830188611725565b61183260c0830187611798565b61183f60e08301866117b3565b61184d6101008301856117b3565b61185b610120830184611616565b9b9a5050505050505050505050565b5f60208201905061187d5f8301846116a6565b92915050565b5f5ffd5b5f5ffd5b7f4e487b71000000000000000000000000000000000000000000000000000000005f52604160045260245ffd5b6118c1826116dd565b810181811067ffffffffffffffff821117156118e0576118df61188b565b5b80604052505050565b5f6118f26114b6565b90506118fe82826118b8565b919050565b5f67ffffffffffffffff82111561191d5761191c61188b565b5b611926826116dd565b9050602081019050919050565b828183375f83830152505050565b5f61195361194e84611903565b6118e9565b90508281526020810184848401111561196f5761196e611887565b5b61197a848285611933565b509392505050565b5f82601f83011261199657611995611883565b5b81356119a6848260208601611941565b91505092915050565b6119b8816117a7565b81146119c2575f5ffd5b50565b5f813590506119d3816119af565b92915050565b5f5f5f5f5f60a086880312156119f2576119f16114bf565b5b5f86013567ffffffffffffffff811115611a0f57611a0e6114c3565b5b611a1b88828901611982565b955050602086013567ffffffffffffffff811115611a3c57611a3b6114c3565b5b611a4888828901611982565b9450506040611a59888289016115cc565b9350506060611a6a888289016115cc565b9250506080611a7b888289016119c5565b9150509295509295909350565b5f602082019050611a9b5f830184611725565b92915050565b5f5f60408385031215611ab757611ab66114bf565b5b5f611ac4858286016114e6565b9250506020611ad5858286016115cc565b9150509250929050565b7f4275696c64696e6752656769737472793a2063616c6c6572206973206e6f74205f8201527f746865206f7261636c6500000000000000000000000000000000000000000000602082015250565b5f611b39602a836116bf565b9150611b4482611adf565b604082019050919050565b5f6020820190508181035f830152611b6681611b2d565b9050919050565b7f4275696c64696e6752656769737472793a206275696c64696e6720646f6573205f8201527f6e6f742065786973740000000000000000000000000000000000000000000000602082015250565b5f611bc76029836116bf565b9150611bd282611b6d565b604082019050919050565b5f6020820190508181035f830152611bf481611bbb565b9050919050565b7f4275696c64696e6752656769737472793a20616c6c206d696c6573746f6e65735f8201527f20616c726561647920636f6e6669726d65640000000000000000000000000000602082015250565b5f611c556032836116bf565b9150611c6082611bfb565b604082019050919050565b5f6020820190508181035f830152611c8281611c49565b9050919050565b7f4e487b71000000000000000000000000000000000000000000000000000000005f52601160045260245ffd5b5f611cc0826117a7565b915060ff8203611cd357611cd2611c89565b5b600182019050919050565b5f602082019050611cf15f8301846117b3565b92915050565b7f4275696c64696e6752656769737472793a2063616c6c6572206973206e6f74205f8201527f6f776e6572206f7220646576656c6f7065720000000000000000000000000000602082015250565b5f611d516032836116bf565b9150611d5c82611cf7565b604082019050919050565b5f6020820190508181035f830152611d7e81611d45565b9050919050565b5f602082019050611d985f830184611798565b92915050565b7f4275696c64696e6752656769737472793a2061646d696e2063616e6e6f7420625f8201527f65207a65726f2061646472657373000000000000000000000000000000000000602082015250565b5f611df8602e836116bf565b9150611e0382611d9e565b604082019050919050565b5f6020820190508181035f830152611e2581611dec565b9050919050565b7f4e487b71000000000000000000000000000000000000000000000000000000005f52602260045260245ffd5b5f6002820490506001821680611e7057607f821691505b602082108103611e8357611e82611e2c565b5b50919050565b7f4275696c64696e6752656769737472793a20746f74616c4d696c6573746f6e655f8201527f73206d757374206265203e203000000000000000000000000000000000000000602082015250565b5f611ee3602d836116bf565b9150611eee82611e89565b604082019050919050565b5f6020820190508181035f830152611f1081611ed7565b9050919050565b7f4275696c64696e6752656769737472793a20646576656c6f7065722063616e6e5f8201527f6f74206265207a65726f20616464726573730000000000000000000000000000602082015250565b5f611f716032836116bf565b9150611f7c82611f17565b604082019050919050565b5f6020820190508181035f830152611f9e81611f65565b9050919050565b7f4275696c64696e6752656769737472793a206f7261636c652063616e6e6f74205f8201527f6265207a65726f20616464726573730000000000000000000000000000000000602082015250565b5f611fff602f836116bf565b915061200a82611fa5565b604082019050919050565b5f6020820190508181035f83015261202c81611ff3565b9050919050565b5f61203d826114c7565b91507fffffffffffffffffffffffffffffffffffffffffffffffffffffffffffffffff820361206f5761206e611c89565b5b600182019050919050565b5f819050815f5260205f209050919050565b5f6020601f8301049050919050565b5f82821b905092915050565b5f600883026120d67fffffffffffffffffffffffffffffffffffffffffffffffffffffffffffffffff8261209b565b6120e0868361209b565b95508019841693508086168417925050509392505050565b5f819050919050565b5f61211b612116612111846114c7565b6120f8565b6114c7565b9050919050565b5f819050919050565b61213483612101565b61214861214082612122565b8484546120a7565b825550505050565b5f5f905090565b61215f612150565b61216a81848461212b565b505050565b5b8181101561218d576121825f82612157565b600181019050612170565b5050565b601f8211156121d2576121a38161207a565b6121ac8461208c565b810160208510156121bb578190505b6121cf6121c78561208c565b83018261216f565b50505b505050565b5f82821c905092915050565b5f6121f25f19846008026121d7565b1980831691505092915050565b5f61220a83836121e3565b9150826002028217905092915050565b612223826116b5565b67ffffffffffffffff81111561223c5761223b61188b565b5b6122468254611e59565b612251828285612191565b5f60209050601f831160018114612282575f8415612270578287015190505b61227a85826121ff565b8655506122e1565b601f1984166122908661207a565b5f5b828110156122b757848901518255600182019150602085019450602081019050612292565b868310156122d457848901516122d0601f8916826121e3565b8355505b6001600288020188555050505b505050505050565b7f4275696c64696e6752656769737472793a20746f6b656e436f6e7472616374205f8201527f63616e6e6f74206265207a65726f206164647265737300000000000000000000602082015250565b5f6123436036836116bf565b915061234e826122e9565b604082019050919050565b5f6020820190508181035f83015261237081612337565b905091905056fea2646970667358221220a9d1e4179394cdce79091ca0ad5934798d7b3eb0106c11b4e06e81d9edb9a6ce64736f6c634300081c0033",
  "linkReferences": {},
  "deployedLinkReferences": {},
  "immutableReferences": {},
  "inputSourceName": "project/contracts/BuildingRegistry.sol",
  "buildInfoId": "solc-0_8_28-443c2c1b81414b9c97c351b9ee28c28181e2695f"
}