{
  "_format": "hh3-artifact-1",
  "contractName": "BuildingRegistry",
  "sourceName": "contracts/BuildingRegistry.sol",
  "abi": [
    {
      "inputs": [
        {
          "internalType": "address",
          "name": "initialOwner",
          "type": "address"
        }
      ],
      "stateMutability": "nonpayable",
      "type": "constructor"
    },
    {
      "inputs": [
        {
          "internalType": "address",
          "name": "owner",
          "type": "address"
        }
      ],
      "name": "OwnableInvalidOwner",
      "type": "error"
    },
    {
      "inputs": [
        {
          "internalType": "address",
          "name": "account",
          "type": "address"
        }
      ],
      "name": "OwnableUnauthorizedAccount",
      "type": "error"
    },
    {
      "anonymous": false,
      "inputs": [
        {
          "indexed": true,
          "internalType": "address",
          "name": "admin",
          "type": "address"
        },
        {
          "indexed": false,
          "internalType": "bool",
          "name": "isAdmin",
          "type": "bool"
        }
      ],
      "name": "AdminUpdated",
      "type": "event"
    },
    {
      "anonymous": false,
      "inputs": [
        {
          "indexed": true,
          "internalType": "uint256",
          "name": "buildingId",
          "type": "uint256"
        },
        {
          "indexed": true,
          "internalType": "address",
          "name": "developer",
          "type": "address"
        }
      ],
      "name": "BuildingCreated",
      "type": "event"
    },
    {
      "anonymous": false,
      "inputs": [
        {
          "indexed": true,
          "internalType": "uint256",
          "name": "buildingId",
          "type": "uint256"
        },
        {
          "indexed": false,
          "internalType": "enum BuildingRegistry.Status",
          "name": "newStatus",
          "type": "uint8"
        }
      ],
      "name": "BuildingStatusUpdated",
      "type": "event"
    },
    {
      "anonymous": false,
      "inputs": [
        {
          "indexed": true,
          "internalType": "uint256",
          "name": "buildingId",
          "type": "uint256"
        },
        {
          "indexed": false,
          "internalType": "uint8",
          "name": "milestone",
          "type": "uint8"
        }
      ],
      "name": "MilestoneConfirmed",
      "type": "event"
    },
    {
      "anonymous": false,
      "inputs": [
        {
          "indexed": true,
          "internalType": "address",
          "name": "previousOwner",
          "type": "address"
        },
        {
          "indexed": true,
          "internalType": "address",
          "name": "newOwner",
          "type": "address"
        }
      ],
      "name": "OwnershipTransferred",
      "type": "event"
    },
    {
      "inputs": [
        {
          "internalType": "address",
          "name": "",
          "type": "address"
        }
      ],
      "name": "admins",
      "outputs": [
        {
          "internalType": "bool",
          "name": "",
          "type": "bool"
        }
      ],
      "stateMutability": "view",
      "type": "function"
    },
    {
      "inputs": [
        {
          "internalType": "uint256",
          "name": "",
          "type": "uint256"
        }
      ],
      "name": "buildings",
      "outputs": [
        {
          "internalType": "uint256",
          "name": "id",
          "type": "uint256"
        },
        {
          "internalType": "string",
          "name": "name",
          "type": "string"
        },
        {
          "internalType": "string",
          "name": "metadataURI",
          "type": "string"
        },
        {
          "internalType": "string",
          "name": "description",
          "type": "string"
        },
        {
          "internalType": "string",
          "name": "location",
          "type": "string"
        },
        {
          "internalType": "address",
          "name": "developer",
          "type": "address"
        },
        {
          "internalType": "address",
          "name": "oracle",
          "type": "address"
        },
        {
          "internalType": "address",
          "name": "tokenContract",
          "type": "address"
        },
        {
          "internalType": "enum BuildingRegistry.Status",
          "name": "status",
          "type": "uint8"
        },
        {
          "internalType": "uint8",
          "name": "totalMilestones",
          "type": "uint8"
        },
        {
          "internalType": "uint8",
          "name": "currentMilestone",
          "type": "uint8"
        },
        {
          "internalType": "bool",
          "name": "exists",
          "type": "bool"
        },
        {
          "internalType": "bool",
          "name": "featured",
          "type": "bool"
        }
      ],
      "stateMutability": "view",
      "type": "function"
    },
    {
      "inputs": [
        {
          "internalType": "uint256",
          "name": "buildingId",
          "type": "uint256"
        }
      ],
      "name": "confirmMilestone",
      "outputs": [],
      "stateMutability": "nonpayable",
      "type": "function"
    },
    {
      "inputs": [
        {
          "internalType": "string",
          "name": "name",
          "type": "string"
        },
        {
          "internalType": "string",
          "name": "metadataURI",
          "type": "string"
        },
        {
          "internalType": "address",
          "name": "developer",
          "type": "address"
        },
        {
          "internalType": "address",
          "name": "oracle",
          "type": "address"
        },
        {
          "internalType": "uint8",
          "name": "totalMilestones",
          "type": "uint8"
        },
        {
          "internalType": "string",
          "name": "description",
          "type": "string"
        },
        {
          "internalType": "string",
          "name": "location",
          "type": "string"
        },
        {
          "internalType": "bool",
          "name": "featured",
          "type": "bool"
        }
      ],
      "name": "createBuilding",
      "outputs": [
        {
          "internalType": "uint256",
          "name": "buildingId",
          "type": "uint256"
        }
      ],
      "stateMutability": "nonpayable",
      "type": "function"
    },
    {
      "inputs": [
        {
          "internalType": "uint256",
          "name": "buildingId",
          "type": "uint256"
        }
      ],
      "name": "getBuilding",
      "outputs": [
        {
          "internalType": "uint256",
          "name": "id",
          "type": "uint256"
        },
        {
          "internalType": "string",
          "name": "name",
          "type": "string"
        },
        {
          "internalType": "string",
          "name": "metadataURI",
          "type": "string"
        },
        {
          "internalType": "address",
          "name": "developer",
          "type": "address"
        },
        {
          "internalType": "address",
          "name": "oracle",
          "type": "address"
        },
        {
          "internalType": "address",
          "name": "tokenContract",
          "type": "address"
        },
        {
          "internalType": "enum BuildingRegistry.Status",
          "name": "status",
          "type": "uint8"
        },
        {
          "internalType": "uint8",
          "name": "totalMilestones",
          "type": "uint8"
        },
        {
          "internalType": "uint8",
          "name": "currentMilestone",
          "type": "uint8"
        },
        {
          "internalType": "bool",
          "name": "exists",
          "type": "bool"
        },
        {
          "internalType": "bool",
          "name": "featured",
          "type": "bool"
        },
        {
          "internalType": "string",
          "name": "description",
          "type": "string"
        },
        {
          "internalType": "string",
          "name": "location",
          "type": "string"
        }
      ],
      "stateMutability": "view",
      "type": "function"
    },
    {
      "inputs": [],
      "name": "getNextBuildingId",
      "outputs": [
        {
          "internalType": "uint256",
          "name": "",
          "type": "uint256"
        }
      ],
      "stateMutability": "view",
      "type": "function"
    },
    {
      "inputs": [],
      "name": "getTotalBuildings",
      "outputs": [
        {
          "internalType": "uint256",
          "name": "",
          "type": "uint256"
        }
      ],
      "stateMutability": "view",
      "type": "function"
    },
    {
      "inputs": [],
      "name": "listBuildingIds",
      "outputs": [
        {
          "internalType": "uint256[]",
          "name": "",
          "type": "uint256[]"
        }
      ],
      "stateMutability": "view",
      "type": "function"
    },
    {
      "inputs": [
        {
          "internalType": "uint256",
          "name": "offset",
          "type": "uint256"
        },
        {
          "internalType": "uint256",
          "name": "limit",
          "type": "uint256"
        }
      ],
      "name": "listBuildings",
      "outputs": [
        {
          "internalType": "uint256[]",
          "name": "buildingIds",
          "type": "uint256[]"
        },
        {
          "internalType": "uint256",
          "name": "total",
          "type": "uint256"
        }
      ],
      "stateMutability": "view",
      "type": "function"
    },
    {
      "inputs": [],
      "name": "owner",
      "outputs": [
        {
          "internalType": "address",
          "name": "",
          "type": "address"
        }
      ],
      "stateMutability": "view",
      "type": "function"
    },
    {
      "inputs": [],
      "name": "renounceOwnership",
      "outputs": [],
      "stateMutability": "nonpayable",
      "type": "function"
    },
    {
      "inputs": [
        {
          "internalType": "address",
          "name": "admin",
          "type": "address"
        },
        {
          "internalType": "bool",
          "name": "isAdmin",
          "type": "bool"
        }
      ],
      "name": "setAdmin",
      "outputs": [],
      "stateMutability": "nonpayable",
      "type": "function"
    },
    {
      "inputs": [
        {
          "internalType": "uint256",
          "name": "buildingId",
          "type": "uint256"
        },
        {
          "internalType": "address",
          "name": "tokenContract",
          "type": "address"
        }
      ],
      "name": "setTokenContract",
      "outputs": [],
      "stateMutability": "nonpayable",
      "type": "function"
    },
    {
      "inputs": [
        {
          "internalType": "address",
          "name": "newOwner",
          "type": "address"
        }
      ],
      "name": "transferOwnership",
      "outputs": [],
      "stateMutability": "nonpayable",
      "type": "function"
    },
    {
      "inputs": [
        {
          "internalType": "uint256",
          "name": "buildingId",
          "type": "uint256"
        },
        {
          "internalType": "enum BuildingRegistry.Status",
          "name": "newStatus",
          "type": "uint8"
        }
      ],
      "name": "updateStatus",
      "outputs": [],
      "stateMutability": "nonpayable",
      "type": "function"
    }
  ],
  "bytecode": "0x60803460bd57601f6117a938819003918201601f19168301916001600160401b0383118484101760c15780849260209460405283398101031260bd57516001600160a01b0381169081900360bd57801560aa575f80546001600160a01b031981168317825560405192916001600160a01b03909116907f8be0079c531659141344cd1fd0a4f28419497f9722a3daafe3b4186f6b6457e09080a360016003556116d390816100d68239f35b631e4fbdf760e01b5f525f60045260245ffd5b5f80fd5b634e487b7160e01b5f52604160045260245ffdfe60806040526004361015610011575f80fd5b5f3560e01c80630343f6881461123957806329315ea7146110ad5780633a1b3d3114610fe8578063429b62e514610fab5780634b0bddd214610ecb5780634c96a06214610da057806351b7cbbd14610d83578063715018a614610d2c5780638da5cb5b14610d055780639dfd8b0214610b22578063ab53b83514610321578063b7c74d6e146102a8578063bd2d904514610194578063d42f5e44146101475763f2fde38b146100be575f80fd5b34610143576020366003190112610143576100d76112ac565b6100df611677565b6001600160a01b03168015610130575f80546001600160a01b03198116831782556001600160a01b0316907f8be0079c531659141344cd1fd0a4f28419497f9722a3daafe3b4186f6b6457e09080a3005b631e4fbdf760e01b5f525f60045260245ffd5b5f80fd5b34610143575f36600319011261014357600354801561018b575f198101908111610177576020905b604051908152f35b634e487b7160e01b5f52601160045260245ffd5b5060205f61016f565b34610143576040366003190112610143576024356001600160a01b0381169060043590829003610143575f546001600160a01b031633148015610286575b6101db906115ec565b805f5260016020526101f960ff600760405f20015460b81c1661158e565b8115610222575f90815260016020526040902060070180546001600160a01b0319169091179055005b60405162461bcd60e51b815260206004820152603660248201527f4275696c64696e6752656769737472793a20746f6b656e436f6e74726163742060448201527563616e6e6f74206265207a65726f206164647265737360501b6064820152608490fd5b505f818152600160205260409020600501546001600160a01b031633146101d2565b34610143575f36600319011261014357600354801561031a575f198101908111610177575b6102d681611478565b905f5b8181106102fa57604051602080825281906102f690820186611279565b0390f35b60018101908181116101775760019161031382866114b7565b52016102d9565b505f6102cd565b34610143576101003660031901126101435760043567ffffffffffffffff81116101435761035390369060040161140a565b60243567ffffffffffffffff81116101435761037390369060040161140a565b6044356001600160a01b0381169190829003610143576064356001600160a01b0381169390849003610143576084359160ff83168093036101435760a43567ffffffffffffffff8111610143576103ce90369060040161140a565b9160c43567ffffffffffffffff8111610143576103ef90369060040161140a565b9360e43592831515809403610143578115610ac7578615610a67578715610a0a57600354955f198714610177575f986001880160035560405191610432836112fa565b8883526020830195865260408301938452606083019788526080830190815260a08301908a825260c0840192835260e08401988c8a526101008501958d8752610120860197885261014086019d8e5261016086019860018a5261018087019a8b528c5f52600160205260405f209651875560018701905180519067ffffffffffffffff82116107bc5781906104c784546112c2565b601f81116109ba575b50602090601f8311600114610957575f9261094c575b50508160011b915f199060031b1c19161790555b518051600287019167ffffffffffffffff82116107bc57819061051d84546112c2565b601f81116108fc575b50602090601f8311600114610899575f9261088e575b50508160011b915f199060031b1c19161790555b518051600386019167ffffffffffffffff82116107bc57819061057384546112c2565b601f811161083e575b50602090601f83116001146107db575f926107d0575b50508160011b915f199060031b1c19161790555b518051600485019167ffffffffffffffff82116107bc576105c783546112c2565b601f8111610777575b50602090601f831160011461070e5760079695949392915f9183610703575b50508160011b915f199060031b1c19161790555b516005830180546001600160a01b03199081166001600160a01b0393841617909155915160068401805484169183169190911790559751929091018054909116919096161785555160048110156106ef576020976106979261066760ff9388611653565b518654915160ff60b01b90841660b01b1690831660a890811b93901b199091169190911760ff60b01b1916178455565b518254915161ffff60b81b1990921690151560b81b60ff60b81b161790151560c01b60ff60c01b1617905560405191817fb303b1734ad670b1e6b9d58f7bc0815a7914a01f3914393a3b86e20fde23eb365f80a38152f35b634e487b7160e01b5f52602160045260245ffd5b015190508f806105ef565b90601f19831691845f52815f20925f5b81811061075f575091600193918560079a999897969410610747575b505050811b019055610603565b01515f1960f88460031b161c191690558f808061073a565b9293602060018192878601518155019501930161071e565b835f5260205f20601f840160051c810191602085106107b2575b601f0160051c01905b8181106107a757506105d0565b5f815560010161079a565b9091508190610791565b634e487b7160e01b5f52604160045260245ffd5b015190508f80610592565b5f8581528281209350601f198516905b818110610826575090846001959493921061080e575b505050811b0190556105a6565b01515f1960f88460031b161c191690558f8080610801565b929360206001819287860151815501950193016107eb565b909150835f5260205f20601f840160051c81019160208510610884575b90601f859493920160051c01905b818110610876575061057c565b5f8155849350600101610869565b909150819061085b565b015190505f8061053c565b5f8581528281209350601f198516905b8181106108e457509084600195949392106108cc575b505050811b019055610550565b01515f1960f88460031b161c191690555f80806108bf565b929360206001819287860151815501950193016108a9565b909150835f5260205f20601f840160051c81019160208510610942575b90601f859493920160051c01905b8181106109345750610526565b5f8155849350600101610927565b9091508190610919565b015190505f806104e6565b5f8581528281209350601f198516905b8181106109a2575090846001959493921061098a575b505050811b0190556104fa565b01515f1960f88460031b161c191690555f808061097d565b92936020600181928786015181550195019301610967565b909150835f5260205f20601f840160051c81019160208510610a00575b90601f859493920160051c01905b8181106109f257506104d0565b5f81558493506001016109e5565b90915081906109d7565b60405162461bcd60e51b815260206004820152602f60248201527f4275696c64696e6752656769737472793a206f7261636c652063616e6e6f742060448201526e6265207a65726f206164647265737360881b6064820152608490fd5b60405162461bcd60e51b815260206004820152603260248201527f4275696c64696e6752656769737472793a20646576656c6f7065722063616e6e6044820152716f74206265207a65726f206164647265737360701b6064820152608490fd5b60405162461bcd60e51b815260206004820152602d60248201527f4275696c64696e6752656769737472793a20746f74616c4d696c6573746f6e6560448201526c073206d757374206265203e203609c1b6064820152608490fd5b34610143576020366003190112610143576004355f52600160205260405f20604051610b4d816112fa565b81548152610b5d60018301611339565b9060208101918252610b7160028401611339565b9260408201938452610b8560038201611339565b9060608301918252610b9960048201611339565b6080840190815260058201546001600160a01b0390811660a08087019182526006850154831660c0880190815260079095015492831660e088019081529196939593919061010083019084901c60ff1660048110156106ef57815261012083019060ff8560a81c16825261014084019260ff8660b01c168452610160850194610c3c60ff8860b81c16151580885260ff61018084019960c01c161515895261158e565b519a519b5199519751905191516001600160a01b039889169890939281169291169060048410156106ef575160ff16935160ff16945115159551151596519851996040519c8d9c8d5260208d016101a090526101a08d01610c9c916113d9565b8c810360408e0152610cad916113d9565b9760608c015260808b015260a08a015260c08901610cca916113fd565b60e0880152610100870152610120860152610140850152838103610160850152610cf3916113d9565b8281036101808401526102f6916113d9565b34610143575f366003190112610143575f546040516001600160a01b039091168152602090f35b34610143575f36600319011261014357610d44611677565b5f80546001600160a01b0319811682556001600160a01b03167f8be0079c531659141344cd1fd0a4f28419497f9722a3daafe3b4186f6b6457e08280a3005b34610143575f366003190112610143576020600354604051908152f35b34610143576020366003190112610143576004355f526001602052602060405f2080549060ff610dd260018301611339565b610dde60028401611339565b92610e69610dee60038301611339565b610e5b610dfd60048501611339565b91610e4d60018060a01b0360058701541698610e3f600760018060a01b0360068a015416980154986101a06040519e8f9e8f90815201526101a08d01906113d9565b908b820360408d01526113d9565b9089820360608b01526113d9565b9087820360808901526113d9565b9360a086015260c085015260018060a01b03811660e0850152610e956101008501838360a01c166113fd565b818160a81c16610120850152818160b01c16610140850152818160b81c16151561016085015260c01c1615156101808301520390f35b3461014357604036600319011261014357610ee46112ac565b6024359081151580920361014357610efa611677565b6001600160a01b0316908115610f4f5760207f235bc17e7930760029e9f4d860a2a8089976de5b381cf8380fc11c1d88a1113391835f526002825260405f2060ff1981541660ff8316179055604051908152a2005b60405162461bcd60e51b815260206004820152602e60248201527f4275696c64696e6752656769737472793a2061646d696e2063616e6e6f74206260448201526d65207a65726f206164647265737360901b6064820152608490fd5b34610143576020366003190112610143576001600160a01b03610fcc6112ac565b165f526002602052602060ff60405f2054166040519015158152f35b346101435760403660031901126101435760043560243560048110156101435760207fd8669986e814db307a46fec4a84b1ba42b394db6024c93abd1a8d92654d4a9d69160018060a01b035f54163314801561108c575b611048906115ec565b835f526001825261106560ff600760405f20015460b81c1661158e565b835f526001825261107c81600760405f2001611653565b61108960405180926113fd565ba2005b505f8481526001835260409020600501546001600160a01b0316331461103f565b34610143576020366003190112610143576004355f818152600160205260409020600601546001600160a01b031633036111e157805f5260016020526110ff60ff600760405f20015460b81c1661158e565b805f526001602052600760405f200180549060ff808360b01c169260a81c168210156111815760ff821461017757805460ff60b01b191660019290920160b01b60ff60b01b169190911781557f68a54d0c4a7cba238f757020a011d103ef5a6e1248b6e95589235a25337ffad79060209060ff905460b01c16604051908152a2005b60405162461bcd60e51b815260206004820152603260248201527f4275696c64696e6752656769737472793a20616c6c206d696c6573746f6e657360448201527108185b1c9958591e4818dbdb999a5c9b595960721b6064820152608490fd5b60405162461bcd60e51b815260206004820152602a60248201527f4275696c64696e6752656769737472793a2063616c6c6572206973206e6f7420604482015269746865206f7261636c6560b01b6064820152608490fd5b346101435760403660031901126101435761126f61125b6024356004356114df565b604051928392604084526040840190611279565b9060208301520390f35b90602080835192838152019201905f5b8181106112965750505090565b8251845260209384019390920191600101611289565b600435906001600160a01b038216820361014357565b90600182811c921680156112f0575b60208310146112dc57565b634e487b7160e01b5f52602260045260245ffd5b91607f16916112d1565b6101a0810190811067ffffffffffffffff8211176107bc57604052565b90601f8019910116810190811067ffffffffffffffff8211176107bc57604052565b9060405191825f82549261134c846112c2565b80845293600181169081156113b75750600114611373575b5061137192500383611317565b565b90505f9291925260205f20905f915b81831061139b575050906020611371928201015f611364565b6020919350806001915483858901015201910190918492611382565b90506020925061137194915060ff191682840152151560051b8201015f611364565b805180835260209291819084018484015e5f828201840152601f01601f1916010190565b9060048210156106ef5752565b81601f820112156101435780359067ffffffffffffffff82116107bc576040519261143f601f8401601f191660200185611317565b8284526020838301011161014357815f926020809301838601378301015290565b67ffffffffffffffff81116107bc5760051b60200190565b9061148282611460565b61148f6040519182611317565b82815280926114a0601f1991611460565b0190602036910137565b9190820180921161017757565b80518210156114cb5760209160051b010190565b634e487b7160e01b5f52603260045260245ffd5b6003549192918015611586575f19810190811161017757925b8380831015611569575061150c90826114aa565b838111611562575b8181039081116101775761152781611478565b915f5b828110611538575050509190565b61154281836114aa565b90600182018092116101775760019161155b82876114b7565b520161152a565b5082611514565b9350505060405161157b602082611317565b5f81525f3681379190565b505f926114f8565b1561159557565b60405162461bcd60e51b815260206004820152602960248201527f4275696c64696e6752656769737472793a206275696c64696e6720646f6573206044820152681b9bdd08195e1a5cdd60ba1b6064820152608490fd5b156115f357565b60405162461bcd60e51b815260206004820152603260248201527f4275696c64696e6752656769737472793a2063616c6c6572206973206e6f742060448201527137bbb732b91037b9103232bb32b637b832b960711b6064820152608490fd5b9060048110156106ef57815460ff60a01b191660a09190911b60ff60a01b16179055565b5f546001600160a01b0316330361168a57565b63118cdaa760e01b5f523360045260245ffdfea264697066735822122095a0bc2781a0c4ed866de94f205cce1f218882176ff9f98d68a3a611dd14cf4064736f6c634300081c0033",
  "linkReferences": {},
  "deployedLinkReferences": {},
  "immutableReferences": {},
  "inputSourceName": "project/contracts/BuildingRegistry.sol",
  "buildInfoId": "solc-0_8_28-0acd15231eefcadd46d88133fa538d5dc3ce5f8a"
}