{
  "_format": "hh3-artifact-1",
  "contractName": "BuildingTokenFactory",
  "sourceName": "contracts/BuildingTokenFactory.sol",
  "abi": [
    {
      "inputs": [
        {
          "internalType": "address",
          "name": "initialOwner",
          "type": "address"
        },
        {
          "internalType": "address",
          "name": "_buildingRegistry",
          "type": "address"
        }
      ],
      "stateMutability": "nonpayable",
      "type": "constructor"
    },
    {
      "inputs": [
        {
          "internalType": "address",
          "name": "owner",
          "type": "address"
        }
      ],
      "name": "OwnableInvalidOwner",
      "type": "error"
    },
    {
      "inputs": [
        {
          "internalType": "address",
          "name": "account",
          "type": "address"
        }
      ],
      "name": "OwnableUnauthorizedAccount",
      "type": "error"
    },
    {
      "anonymous": false,
      "inputs": [
        {
          "indexed": true,
          "internalType": "uint256",
          "name": "buildingId",
          "type": "uint256"
        },
        {
          "indexed": true,
          "internalType": "address",
          "name": "tokenAddress",
          "type": "address"
        },
        {
          "indexed": false,
          "internalType": "string",
          "name": "name",
          "type": "string"
        },
        {
          "indexed": false,
          "internalType": "string",
          "name": "symbol",
          "type": "string"
        },
        {
          "indexed": false,
          "internalType": "uint256",
          "name": "totalSupply",
          "type": "uint256"
        },
        {
          "indexed": false,
          "internalType": "address",
          "name": "initialOwner",
          "type": "address"
        }
      ],
      "name": "BuildingTokenCreated",
      "type": "event"
    },
    {
      "anonymous": false,
      "inputs": [
        {
          "indexed": true,
          "internalType": "address",
          "name": "previousOwner",
          "type": "address"
        },
        {
          "indexed": true,
          "internalType": "address",
          "name": "newOwner",
          "type": "address"
        }
      ],
      "name": "OwnershipTransferred",
      "type": "event"
    },
    {
      "inputs": [
        {
          "internalType": "uint256",
          "name": "",
          "type": "uint256"
        }
      ],
      "name": "allTokens",
      "outputs": [
        {
          "internalType": "address",
          "name": "",
          "type": "address"
        }
      ],
      "stateMutability": "view",
      "type": "function"
    },
    {
      "inputs": [],
      "name": "buildingRegistry",
      "outputs": [
        {
          "internalType": "contract IBuildingRegistryForFactory",
          "name": "",
          "type": "address"
        }
      ],
      "stateMutability": "view",
      "type": "function"
    },
    {
      "inputs": [
        {
          "internalType": "uint256",
          "name": "",
          "type": "uint256"
        }
      ],
      "name": "buildingTokens",
      "outputs": [
        {
          "internalType": "address",
          "name": "",
          "type": "address"
        }
      ],
      "stateMutability": "view",
      "type": "function"
    },
    {
      "inputs": [
        {
          "internalType": "uint256",
          "name": "buildingId",
          "type": "uint256"
        },
        {
          "internalType": "string",
          "name": "name",
          "type": "string"
        },
        {
          "internalType": "string",
          "name": "symbol",
          "type": "string"
        },
        {
          "internalType": "uint256",
          "name": "totalSupply",
          "type": "uint256"
        },
        {
          "internalType": "address",
          "name": "initialOwner",
          "type": "address"
        }
      ],
      "name": "createBuildingToken",
      "outputs": [
        {
          "internalType": "address",
          "name": "tokenAddress",
          "type": "address"
        }
      ],
      "stateMutability": "nonpayable",
      "type": "function"
    },
    {
      "inputs": [],
      "name": "getAllTokens",
      "outputs": [
        {
          "internalType": "address[]",
          "name": "",
          "type": "address[]"
        }
      ],
      "stateMutability": "view",
      "type": "function"
    },
    {
      "inputs": [
        {
          "internalType": "uint256",
          "name": "buildingId",
          "type": "uint256"
        }
      ],
      "name": "getBuildingToken",
      "outputs": [
        {
          "internalType": "address",
          "name": "",
          "type": "address"
        }
      ],
      "stateMutability": "view",
      "type": "function"
    },
    {
      "inputs": [],
      "name": "getTotalTokensCreated",
      "outputs": [
        {
          "internalType": "uint256",
          "name": "",
          "type": "uint256"
        }
      ],
      "stateMutability": "view",
      "type": "function"
    },
    {
      "inputs": [],
      "name": "owner",
      "outputs": [
        {
          "internalType": "address",
          "name": "",
          "type": "address"
        }
      ],
      "stateMutability": "view",
      "type": "function"
    },
    {
      "inputs": [],
      "name": "renounceOwnership",
      "outputs": [],
      "stateMutability": "nonpayable",
      "type": "function"
    },
    {
      "inputs": [
        {
          "internalType": "address",
          "name": "newOwner",
          "type": "address"
        }
      ],
      "name": "transferOwnership",
      "outputs": [],
      "stateMutability": "nonpayable",
      "type": "function"
    }
  ],
  "bytecode": "0x60a03461015957601f61180338819003918201601f19168301916001600160401b0383118484101761015d57808492604094855283398101031261015957610052602061004b83610171565b9201610171565b6001600160a01b03909116908115610146575f80546001600160a01b031981168417825560405193916001600160a01b03909116907f8be0079c531659141344cd1fd0a4f28419497f9722a3daafe3b4186f6b6457e09080a36001600160a01b03169081156100de575060805260405161167d90816101868239608051818181610200015261072d0152f35b62461bcd60e51b815260206004820152603d60248201527f4275696c64696e67546f6b656e466163746f72793a206275696c64696e67526560448201527f6769737472792063616e6e6f74206265207a65726f20616464726573730000006064820152608490fd5b631e4fbdf760e01b5f525f60045260245ffd5b5f80fd5b634e487b7160e01b5f52604160045260245ffd5b51906001600160a01b03821682036101595756fe6080806040526004361015610012575f80fd5b5f905f3560e01c9081631d66d69014610824575080632a5c792a1461075c5780632fdf6d4914610718578063634282af146106d6578063715018a61461067f5780638da5cb5b14610658578063b1793c2f14610626578063ca7d38c31461014d578063d9f1ba591461011a5763f2fde38b1461008c575f80fd5b34610117576020366003190112610117576004356001600160a01b03811690819003610115576100ba610987565b80156101015781546001600160a01b03198116821783556001600160a01b03167f8be0079c531659141344cd1fd0a4f28419497f9722a3daafe3b4186f6b6457e08380a380f35b631e4fbdf760e01b82526004829052602482fd5b505b80fd5b503461011757602036600319011261011757602090600435815260018252604060018060a01b0391205416604051908152f35b346103b15760a03660031901126103b15760043560243567ffffffffffffffff81116103b1576101819036906004016108a8565b60443567ffffffffffffffff81116103b1576101a19036906004016108a8565b606435926084356001600160a01b03811692908390036103b1576101c3610987565b5f828152600160205260409020546001600160a01b03166105bb5782156105505784156104e557604051634efec58160e11b8152600481018390527f00000000000000000000000000000000000000000000000000000000000000006001600160a01b031691905f81602481865afa80156103c9576103d4575b50604051610c9a80820182811067ffffffffffffffff8211176103b55782916109ae833960a0815286608061028661027860a085018c610963565b848103602086015287610963565b928b6040820152886060820152015203905ff080156103c95760018060a01b031694835f52600160205260405f20866bffffffffffffffffffffffff60a01b825416179055600254680100000000000000008110156103b5578060016102ef920160025561083e565b81546001600160a01b0360039290921b91821b19169088901b179055823b156103b157602096869561038b61037e947f229d3e46d8223bb6e609017cd63c7772971c9dd9accbcb6e4d4f233d101fd6de965f8a60448b83604051958694859363bd2d904560e01b8552600485015260248401525af16103a1575b50604051958695608087526080870190610963565b908582038c870152610963565b91604084015260608301520390a3604051908152f35b5f6103ab9161086a565b5f610369565b5f80fd5b634e487b7160e01b5f52604160045260245ffd5b6040513d5f823e3d90fd5b3d805f833e6103e3818361086a565b81016101a0828203126103b157602082015167ffffffffffffffff81116103b157816104109184016108ee565b50604082015167ffffffffffffffff81116103b157816104319184016108ee565b5061043e60608301610934565b5061044b60808301610934565b5061045860a08301610934565b50600460c083015110156103b15761047260e08301610948565b506104806101008301610948565b5061048e6101208301610956565b5061049c6101408301610956565b5061016082015167ffffffffffffffff81116103b157816104be9184016108ee565b5061018082015167ffffffffffffffff81116103b1576104de92016108ee565b508661023d565b60405162461bcd60e51b815260206004820152603b60248201527f4275696c64696e67546f6b656e466163746f72793a20746f74616c537570706c60448201527f79206d7573742062652067726561746572207468616e207a65726f00000000006064820152608490fd5b60405162461bcd60e51b815260206004820152603960248201527f4275696c64696e67546f6b656e466163746f72793a20696e697469616c4f776e60448201527f65722063616e6e6f74206265207a65726f2061646472657373000000000000006064820152608490fd5b60405162461bcd60e51b815260206004820152603c60248201527f4275696c64696e67546f6b656e466163746f72793a20746f6b656e20616c726560448201527f6164792065786973747320666f722074686973206275696c64696e67000000006064820152608490fd5b346103b15760203660031901126103b1576004355f526001602052602060018060a01b0360405f205416604051908152f35b346103b1575f3660031901126103b1575f546040516001600160a01b039091168152602090f35b346103b1575f3660031901126103b157610697610987565b5f80546001600160a01b0319811682556001600160a01b03167f8be0079c531659141344cd1fd0a4f28419497f9722a3daafe3b4186f6b6457e08280a3005b346103b15760203660031901126103b1576004356002548110156103b1576106ff60209161083e565b905460405160039290921b1c6001600160a01b03168152f35b346103b1575f3660031901126103b1576040517f00000000000000000000000000000000000000000000000000000000000000006001600160a01b03168152602090f35b346103b1575f3660031901126103b1576040518060206002549283815201809260025f527f405787fa12a823e0f2b7631cc41b3ba8828b3321ca811111fa75cd3aa3bb5ace905f5b81811061080557505050816107ba91038261086a565b604051918291602083019060208452518091526040830191905f5b8181106107e3575050500390f35b82516001600160a01b03168452859450602093840193909201916001016107d5565b82546001600160a01b03168452602090930192600192830192016107a4565b346103b1575f3660031901126103b1576020906002548152f35b6002548110156108565760025f5260205f2001905f90565b634e487b7160e01b5f52603260045260245ffd5b90601f8019910116810190811067ffffffffffffffff8211176103b557604052565b67ffffffffffffffff81116103b557601f01601f191660200190565b81601f820112156103b1578035906108bf8261088c565b926108cd604051948561086a565b828452602083830101116103b157815f926020809301838601378301015290565b81601f820112156103b1578051906109058261088c565b92610913604051948561086a565b828452602083830101116103b157815f9260208093018386015e8301015290565b51906001600160a01b03821682036103b157565b519060ff821682036103b157565b519081151582036103b157565b805180835260209291819084018484015e5f828201840152601f01601f1916010190565b5f546001600160a01b0316330361099a57565b63118cdaa760e01b5f523360045260245ffdfe60a06040523461048257610c9a8038038061001981610486565b928339810160a0828203126104825781516001600160401b03811161048257816100449184016104ab565b602083015190916001600160401b038211610482576100649184016104ab565b91604081015190608060608201519101519260018060a01b038416809403610482578051906001600160401b0382116103855760035490600182811c92168015610478575b60208310146103675781601f84931161040a575b50602090601f83116001146103a4575f92610399575b50508160011b915f199060031b1c1916176003555b83516001600160401b03811161038557600454600181811c9116801561037b575b602082101461036757601f8111610304575b50602094601f82116001146102a1579481929394955f92610296575b50508160011b915f199060031b1c1916176004555b821561028357600580546001600160a01b03198116851790915583906001600160a01b03167f8be0079c531659141344cd1fd0a4f28419497f9722a3daafe3b4186f6b6457e05f80a3811561021857608052600254908082018092116102045760207fddf252ad1be2c89b69c2b068fc378daa952ba7f163c4a11628f55a4df523b3ef915f9360025584845283825260408420818154019055604051908152a360405161079d90816104fd8239608051816103a20152f35b634e487b7160e01b5f52601160045260245ffd5b60405162461bcd60e51b815260206004820152603560248201527f4275696c64696e67546f6b656e3a20746f74616c20737570706c79206d75737460448201527f2062652067726561746572207468616e207a65726f00000000000000000000006064820152608490fd5b631e4fbdf760e01b5f525f60045260245ffd5b015190505f80610137565b601f1982169560045f52805f20915f5b8881106102ec575083600195969798106102d4575b505050811b0160045561014c565b01515f1960f88460031b161c191690555f80806102c6565b919260206001819286850151815501940192016102b1565b60045f527f8a35acfbc15ff81a39ae7d344fd709f28e8600b4aa8c65c6b64bfe7fe36bd19b601f830160051c8101916020841061035d575b601f0160051c01905b818110610352575061011b565b5f8155600101610345565b909150819061033c565b634e487b7160e01b5f52602260045260245ffd5b90607f1690610109565b634e487b7160e01b5f52604160045260245ffd5b015190505f806100d3565b60035f9081528281209350601f198516905b8181106103f257509084600195949392106103da575b505050811b016003556100e8565b01515f1960f88460031b161c191690555f80806103cc565b929360206001819287860151815501950193016103b6565b60035f529091507fc2575a0e9e593c00f959f8c92f12db2869c3395a3b0502d05e2516446f71f85b601f840160051c8101916020851061046e575b90601f859493920160051c01905b81811061046057506100bd565b5f8155849350600101610453565b9091508190610445565b91607f16916100a9565b5f80fd5b6040519190601f01601f191682016001600160401b0381118382101761038557604052565b81601f82011215610482578051906001600160401b038211610385576104da601f8301601f1916602001610486565b928284526020838301011161048257815f9260208093018386015e830101529056fe6080806040526004361015610012575f80fd5b5f3560e01c90816306fdde031461055e57508063095ea7b3146104dc57806318160ddd146104bf57806323b872dd146103e0578063313ce567146103c55780635561e38b1461038b57806370a0823114610354578063715018a6146102f95780638da5cb5b146102d157806395d89b41146101b6578063a9059cbb14610185578063dd62ed3e146101355763f2fde38b146100ab575f80fd5b34610131576020366003190112610131576100c4610657565b6100cc610740565b6001600160a01b0316801561011e57600580546001600160a01b0319811683179091556001600160a01b03167f8be0079c531659141344cd1fd0a4f28419497f9722a3daafe3b4186f6b6457e05f80a3005b631e4fbdf760e01b5f525f60045260245ffd5b5f80fd5b346101315760403660031901126101315761014e610657565b61015661066d565b6001600160a01b039182165f908152600160209081526040808320949093168252928352819020549051908152f35b34610131576040366003190112610131576101ab6101a1610657565b6024359033610683565b602060405160018152f35b34610131575f366003190112610131576040515f6004548060011c906001811680156102c7575b6020831081146102b3578285529081156102975750600114610242575b50819003601f01601f191681019067ffffffffffffffff82118183101761022e5761022a8291826040528261062d565b0390f35b634e487b7160e01b5f52604160045260245ffd5b905060045f527f8a35acfbc15ff81a39ae7d344fd709f28e8600b4aa8c65c6b64bfe7fe36bd19b5f905b828210610281575060209150820101826101fa565b600181602092548385880101520191019061026c565b90506020925060ff191682840152151560051b820101826101fa565b634e487b7160e01b5f52602260045260245ffd5b91607f16916101dd565b34610131575f366003190112610131576005546040516001600160a01b039091168152602090f35b34610131575f36600319011261013157610311610740565b600580546001600160a01b031981169091555f906001600160a01b03167f8be0079c531659141344cd1fd0a4f28419497f9722a3daafe3b4186f6b6457e08280a3005b34610131576020366003190112610131576001600160a01b03610375610657565b165f525f602052602060405f2054604051908152f35b34610131575f3660031901126101315760206040517f00000000000000000000000000000000000000000000000000000000000000008152f35b34610131575f36600319011261013157602060405160128152f35b34610131576060366003190112610131576103f9610657565b61040161066d565b6001600160a01b0382165f818152600160209081526040808320338452909152902054909260443592915f19811061043f575b506101ab9350610683565b8381106104a457841561049157331561047e576101ab945f52600160205260405f2060018060a01b0333165f526020528360405f209103905584610434565b634a1406b160e11b5f525f60045260245ffd5b63e602df0560e01b5f525f60045260245ffd5b8390637dc7a0d960e11b5f523360045260245260445260645ffd5b34610131575f366003190112610131576020600254604051908152f35b34610131576040366003190112610131576104f5610657565b602435903315610491576001600160a01b031690811561047e57335f52600160205260405f20825f526020528060405f20556040519081527f8c5be1e5ebec7d5bd14f71427d1e84f3dd0314c0f7b2291e5b200ac8c7c3b92560203392a3602060405160018152f35b34610131575f366003190112610131575f6003548060011c90600181168015610623575b6020831081146102b35782855290811561029757506001146105ce5750819003601f01601f191681019067ffffffffffffffff82118183101761022e5761022a8291826040528261062d565b905060035f527fc2575a0e9e593c00f959f8c92f12db2869c3395a3b0502d05e2516446f71f85b5f905b82821061060d575060209150820101826101fa565b60018160209254838588010152019101906105f8565b91607f1691610582565b602060409281835280519182918282860152018484015e5f828201840152601f01601f1916010190565b600435906001600160a01b038216820361013157565b602435906001600160a01b038216820361013157565b6001600160a01b031690811561072d576001600160a01b031691821561071a57815f525f60205260405f205481811061070157817fddf252ad1be2c89b69c2b068fc378daa952ba7f163c4a11628f55a4df523b3ef92602092855f525f84520360405f2055845f525f825260405f20818154019055604051908152a3565b8263391434e360e21b5f5260045260245260445260645ffd5b63ec442f0560e01b5f525f60045260245ffd5b634b637e8f60e11b5f525f60045260245ffd5b6005546001600160a01b0316330361075457565b63118cdaa760e01b5f523360045260245ffdfea26469706673582212201dc0ddcc2e49e2e64ca4b8986baaa8967da4abb4e0c140d20bb66a198b38906c64736f6c634300081c0033a26469706673582212205a659c5101d831d6e190b745e4e0b75c34b7b55c86eb3f53d0d212116582bc9264736f6c634300081c0033",
  "linkReferences": {},
  "deployedLinkReferences": {},
  "immutableReferences": {
    "2702": [
      {
        "length": 32,
        "start": 512
      },
      {
        "length": 32,
        "start": 1837
      }
    ]
  },
  "inputSourceName": "project/contracts/BuildingTokenFactory.sol",
  "buildInfoId": "solc-0_8_28-a57f6a673c268b877f101595f3beafaee83d789f"
}